{
  "_format": "hh-sol-artifact-1",
  "contractName": "Bridge",
  "sourceName": "contracts/Bridge.sol",
  "abi": [
    {
      "inputs": [],
      "stateMutability": "nonpayable",
      "type": "constructor"
    },
    {
      "inputs": [
        {
          "internalType": "bytes",
          "name": "metadata",
          "type": "bytes"
        },
        {
          "internalType": "bytes",
          "name": "message",
          "type": "bytes"
        }
      ],
      "name": "process",
      "outputs": [],
      "stateMutability": "payable",
      "type": "function"
    },
    {
      "inputs": [],
      "name": "withdraw",
      "outputs": [],
      "stateMutability": "nonpayable",
      "type": "function"
    }
  ],
  "bytecode": "0x608060405234801561001057600080fd5b503060405161001e90610089565b61002891906100d7565b604051809103906000f080158015610044573d6000803e3d6000fd5b506000806101000a81548173ffffffffffffffffffffffffffffffffffffffff021916908373ffffffffffffffffffffffffffffffffffffffff1602179055506100f2565b612dfb806105bf83390190565b600073ffffffffffffffffffffffffffffffffffffffff82169050919050565b60006100c182610096565b9050919050565b6100d1816100b6565b82525050565b60006020820190506100ec60008301846100c8565b92915050565b6104be806101016000396000f3fe6080604052600436106100295760003560e01c80633ccfd60b1461002e5780637c39d13014610045575b600080fd5b34801561003a57600080fd5b50610043610061565b005b61005f600480360381019061005a91906102c0565b610063565b005b565b60008054906101000a900473ffffffffffffffffffffffffffffffffffffffff1673ffffffffffffffffffffffffffffffffffffffff166100e785858080601f016020809104026020016040519081016040528093929190818152602001838380828437600081840152601f19601f82011690508083019250505050505050610243565b73ffffffffffffffffffffffffffffffffffffffff161461010757600080fd5b60008060009054906101000a900473ffffffffffffffffffffffffffffffffffffffff1673ffffffffffffffffffffffffffffffffffffffff166318160ddd6040518163ffffffff1660e01b8152600401602060405180830381865afa158015610175573d6000803e3d6000fd5b505050506040513d601f19601f820116820180604052508101906101999190610377565b9050600083838101906101ac9190610402565b905060008054906101000a900473ffffffffffffffffffffffffffffffffffffffff1673ffffffffffffffffffffffffffffffffffffffff1663a144819482846040518363ffffffff1660e01b815260040161020992919061045f565b600060405180830381600087803b15801561022357600080fd5b505af1158015610237573d6000803e3d6000fd5b50505050505050505050565b600060148201519050919050565b600080fd5b600080fd5b600080fd5b600080fd5b600080fd5b60008083601f8401126102805761027f61025b565b5b8235905067ffffffffffffffff81111561029d5761029c610260565b5b6020830191508360018202830111156102b9576102b8610265565b5b9250929050565b600080600080604085870312156102da576102d9610251565b5b600085013567ffffffffffffffff8111156102f8576102f7610256565b5b6103048782880161026a565b9450945050602085013567ffffffffffffffff81111561032757610326610256565b5b6103338782880161026a565b925092505092959194509250565b6000819050919050565b61035481610341565b811461035f57600080fd5b50565b6000815190506103718161034b565b92915050565b60006020828403121561038d5761038c610251565b5b600061039b84828501610362565b91505092915050565b600073ffffffffffffffffffffffffffffffffffffffff82169050919050565b60006103cf826103a4565b9050919050565b6103df816103c4565b81146103ea57600080fd5b50565b6000813590506103fc816103d6565b92915050565b60006020828403121561041857610417610251565b5b6000610426848285016103ed565b91505092915050565b600061043a826103a4565b9050919050565b61044a8161042f565b82525050565b61045981610341565b82525050565b60006040820190506104746000830185610441565b6104816020830184610450565b939250505056fea2646970667358221220d6c50960f552295dfb591a07ea5a6d556c3c465949c6914ecd8e242c2dd44fd564736f6c634300081b0033608060405234801561001057600080fd5b50604051612dfb380380612dfb83398181016040528101906100329190610272565b806040518060400160405280600481526020017f644e4654000000000000000000000000000000000000000000000000000000008152506040518060400160405280600581526020017f644e46542000000000000000000000000000000000000000000000000000000081525081600090816100ae91906104ef565b5080600190816100be91906104ef565b505050600073ffffffffffffffffffffffffffffffffffffffff168173ffffffffffffffffffffffffffffffffffffffff16036101335760006040517f1e4fbdf700000000000000000000000000000000000000000000000000000000815260040161012a91906105d0565b60405180910390fd5b6101428161014960201b60201c565b50506105eb565b6000600a60009054906101000a900473ffffffffffffffffffffffffffffffffffffffff16905081600a60006101000a81548173ffffffffffffffffffffffffffffffffffffffff021916908373ffffffffffffffffffffffffffffffffffffffff1602179055508173ffffffffffffffffffffffffffffffffffffffff168173ffffffffffffffffffffffffffffffffffffffff167f8be0079c531659141344cd1fd0a4f28419497f9722a3daafe3b4186f6b6457e060405160405180910390a35050565b600080fd5b600073ffffffffffffffffffffffffffffffffffffffff82169050919050565b600061023f82610214565b9050919050565b61024f81610234565b811461025a57600080fd5b50565b60008151905061026c81610246565b92915050565b6000602082840312156102885761028761020f565b5b60006102968482850161025d565b91505092915050565b600081519050919050565b7f4e487b7100000000000000000000000000000000000000000000000000000000600052604160045260246000fd5b7f4e487b7100000000000000000000000000000000000000000000000000000000600052602260045260246000fd5b6000600282049050600182168061032057607f821691505b602082108103610333576103326102d9565b5b50919050565b60008190508160005260206000209050919050565b60006020601f8301049050919050565b600082821b905092915050565b60006008830261039b7fffffffffffffffffffffffffffffffffffffffffffffffffffffffffffffffff8261035e565b6103a5868361035e565b95508019841693508086168417925050509392505050565b6000819050919050565b6000819050919050565b60006103ec6103e76103e2846103bd565b6103c7565b6103bd565b9050919050565b6000819050919050565b610406836103d1565b61041a610412826103f3565b84845461036b565b825550505050565b600090565b61042f610422565b61043a8184846103fd565b505050565b5b8181101561045e57610453600082610427565b600181019050610440565b5050565b601f8211156104a35761047481610339565b61047d8461034e565b8101602085101561048c578190505b6104a06104988561034e565b83018261043f565b50505b505050565b600082821c905092915050565b60006104c6600019846008026104a8565b1980831691505092915050565b60006104df83836104b5565b9150826002028217905092915050565b6104f88261029f565b67ffffffffffffffff811115610511576105106102aa565b5b61051b8254610308565b610526828285610462565b600060209050601f8311600181146105595760008415610547578287015190505b61055185826104d3565b8655506105b9565b601f19841661056786610339565b60005b8281101561058f5784890151825560018201915060208501945060208101905061056a565b868310156105ac57848901516105a8601f8916826104b5565b8355505b6001600288020188555050505b505050505050565b6105ca81610234565b82525050565b60006020820190506105e560008301846105c1565b92915050565b612801806105fa6000396000f3fe608060405234801561001057600080fd5b50600436106101375760003560e01c80636352211e116100b8578063a14481941161007c578063a14481941461034e578063a22cb4651461036a578063b88d4fde14610386578063c87b56dd146103a2578063e985e9c5146103d2578063f2fde38b1461040257610137565b80636352211e146102a857806370a08231146102d8578063715018a6146103085780638da5cb5b1461031257806395d89b411461033057610137565b806323b872dd116100ff57806323b872dd146101f45780632f745c591461021057806342842e0e1461024057806342966c681461025c5780634f6ccce71461027857610137565b806301ffc9a71461013c57806306fdde031461016c578063081812fc1461018a578063095ea7b3146101ba57806318160ddd146101d6575b600080fd5b61015660048036038101906101519190611f8a565b61041e565b6040516101639190611fd2565b60405180910390f35b610174610430565b604051610181919061207d565b60405180910390f35b6101a4600480360381019061019f91906120d5565b6104c2565b6040516101b19190612143565b60405180910390f35b6101d460048036038101906101cf919061218a565b6104de565b005b6101de6104f4565b6040516101eb91906121d9565b60405180910390f35b61020e600480360381019061020991906121f4565b610501565b005b61022a6004803603810190610225919061218a565b610603565b60405161023791906121d9565b60405180910390f35b61025a600480360381019061025591906121f4565b6106ac565b005b610276600480360381019061027191906120d5565b6106cc565b005b610292600480360381019061028d91906120d5565b6106e3565b60405161029f91906121d9565b60405180910390f35b6102c260048036038101906102bd91906120d5565b610759565b6040516102cf9190612143565b60405180910390f35b6102f260048036038101906102ed9190612247565b61076b565b6040516102ff91906121d9565b60405180910390f35b610310610825565b005b61031a610839565b6040516103279190612143565b60405180910390f35b610338610863565b604051610345919061207d565b60405180910390f35b6103686004803603810190610363919061218a565b6108f5565b005b610384600480360381019061037f91906122a0565b61090b565b005b6103a0600480360381019061039b9190612415565b610921565b005b6103bc60048036038101906103b791906120d5565b61093e565b6040516103c9919061207d565b60405180910390f35b6103ec60048036038101906103e79190612498565b6109a7565b6040516103f99190611fd2565b60405180910390f35b61041c60048036038101906104179190612247565b610a3b565b005b600061042982610ac1565b9050919050565b60606000805461043f90612507565b80601f016020809104026020016040519081016040528092919081815260200182805461046b90612507565b80156104b85780601f1061048d576101008083540402835291602001916104b8565b820191906000526020600020905b81548152906001019060200180831161049b57829003601f168201915b5050505050905090565b60006104cd82610b3b565b506104d782610bc3565b9050919050565b6104f082826104eb610c00565b610c08565b5050565b6000600880549050905090565b600073ffffffffffffffffffffffffffffffffffffffff168273ffffffffffffffffffffffffffffffffffffffff16036105735760006040517f64a0ae9200000000000000000000000000000000000000000000000000000000815260040161056a9190612143565b60405180910390fd5b60006105878383610582610c00565b610c1a565b90508373ffffffffffffffffffffffffffffffffffffffff168173ffffffffffffffffffffffffffffffffffffffff16146105fd578382826040517f64283d7b0000000000000000000000000000000000000000000000000000000081526004016105f493929190612538565b60405180910390fd5b50505050565b600061060e8361076b565b82106106535782826040517fa57d13dc00000000000000000000000000000000000000000000000000000000815260040161064a92919061256f565b60405180910390fd5b600660008473ffffffffffffffffffffffffffffffffffffffff1673ffffffffffffffffffffffffffffffffffffffff168152602001908152602001600020600083815260200190815260200160002054905092915050565b6106c783838360405180602001604052806000815250610921565b505050565b6106df6000826106da610c00565b610c1a565b5050565b60006106ed6104f4565b8210610733576000826040517fa57d13dc00000000000000000000000000000000000000000000000000000000815260040161072a92919061256f565b60405180910390fd5b6008828154811061074757610746612598565b5b90600052602060002001549050919050565b600061076482610b3b565b9050919050565b60008073ffffffffffffffffffffffffffffffffffffffff168273ffffffffffffffffffffffffffffffffffffffff16036107de5760006040517f89c62b640000000000000000000000000000000000000000000000000000000081526004016107d59190612143565b60405180910390fd5b600360008373ffffffffffffffffffffffffffffffffffffffff1673ffffffffffffffffffffffffffffffffffffffff168152602001908152602001600020549050919050565b61082d610c30565b6108376000610cb7565b565b6000600a60009054906101000a900473ffffffffffffffffffffffffffffffffffffffff16905090565b60606001805461087290612507565b80601f016020809104026020016040519081016040528092919081815260200182805461089e90612507565b80156108eb5780601f106108c0576101008083540402835291602001916108eb565b820191906000526020600020905b8154815290600101906020018083116108ce57829003601f168201915b5050505050905090565b6108fd610c30565b6109078282610d7d565b5050565b61091d610916610c00565b8383610d9b565b5050565b61092c848484610501565b61093884848484610f0a565b50505050565b606061094982610b3b565b5060006109546110c1565b90506000815111610974576040518060200160405280600081525061099f565b8061097e846110d8565b60405160200161098f929190612603565b6040516020818303038152906040525b915050919050565b6000600560008473ffffffffffffffffffffffffffffffffffffffff1673ffffffffffffffffffffffffffffffffffffffff16815260200190815260200160002060008373ffffffffffffffffffffffffffffffffffffffff1673ffffffffffffffffffffffffffffffffffffffff16815260200190815260200160002060009054906101000a900460ff16905092915050565b610a43610c30565b600073ffffffffffffffffffffffffffffffffffffffff168173ffffffffffffffffffffffffffffffffffffffff1603610ab55760006040517f1e4fbdf7000000000000000000000000000000000000000000000000000000008152600401610aac9190612143565b60405180910390fd5b610abe81610cb7565b50565b60007f780e9d63000000000000000000000000000000000000000000000000000000007bffffffffffffffffffffffffffffffffffffffffffffffffffffffff1916827bffffffffffffffffffffffffffffffffffffffffffffffffffffffff19161480610b345750610b33826111a6565b5b9050919050565b600080610b4783611288565b9050600073ffffffffffffffffffffffffffffffffffffffff168173ffffffffffffffffffffffffffffffffffffffff1603610bba57826040517f7e273289000000000000000000000000000000000000000000000000000000008152600401610bb191906121d9565b60405180910390fd5b80915050919050565b60006004600083815260200190815260200160002060009054906101000a900473ffffffffffffffffffffffffffffffffffffffff169050919050565b600033905090565b610c1583838360016112c5565b505050565b6000610c2784848461148a565b90509392505050565b610c38610c00565b73ffffffffffffffffffffffffffffffffffffffff16610c56610839565b73ffffffffffffffffffffffffffffffffffffffff1614610cb557610c79610c00565b6040517f118cdaa7000000000000000000000000000000000000000000000000000000008152600401610cac9190612143565b60405180910390fd5b565b6000600a60009054906101000a900473ffffffffffffffffffffffffffffffffffffffff16905081600a60006101000a81548173ffffffffffffffffffffffffffffffffffffffff021916908373ffffffffffffffffffffffffffffffffffffffff1602179055508173ffffffffffffffffffffffffffffffffffffffff168173ffffffffffffffffffffffffffffffffffffffff167f8be0079c531659141344cd1fd0a4f28419497f9722a3daafe3b4186f6b6457e060405160405180910390a35050565b610d978282604051806020016040528060008152506115a7565b5050565b600073ffffffffffffffffffffffffffffffffffffffff168273ffffffffffffffffffffffffffffffffffffffff1603610e0c57816040517f5b08ba18000000000000000000000000000000000000000000000000000000008152600401610e039190612143565b60405180910390fd5b80600560008573ffffffffffffffffffffffffffffffffffffffff1673ffffffffffffffffffffffffffffffffffffffff16815260200190815260200160002060008473ffffffffffffffffffffffffffffffffffffffff1673ffffffffffffffffffffffffffffffffffffffff16815260200190815260200160002060006101000a81548160ff0219169083151502179055508173ffffffffffffffffffffffffffffffffffffffff168373ffffffffffffffffffffffffffffffffffffffff167f17307eab39ab6107e8899845ad3d59bd9653f200f220920489ca2b5937696c3183604051610efd9190611fd2565b60405180910390a3505050565b60008373ffffffffffffffffffffffffffffffffffffffff163b11156110bb578273ffffffffffffffffffffffffffffffffffffffff1663150b7a02610f4e610c00565b8685856040518563ffffffff1660e01b8152600401610f70949392919061267c565b6020604051808303816000875af1925050508015610fac57506040513d601f19601f82011682018060405250810190610fa991906126dd565b60015b611030573d8060008114610fdc576040519150601f19603f3d011682016040523d82523d6000602084013e610fe1565b606091505b50600081510361102857836040517f64a0ae9200000000000000000000000000000000000000000000000000000000815260040161101f9190612143565b60405180910390fd5b805181602001fd5b63150b7a0260e01b7bffffffffffffffffffffffffffffffffffffffffffffffffffffffff1916817bffffffffffffffffffffffffffffffffffffffffffffffffffffffff1916146110b957836040517f64a0ae920000000000000000000000000000000000000000000000000000000081526004016110b09190612143565b60405180910390fd5b505b50505050565b606060405180602001604052806000815250905090565b6060600060016110e7846115c3565b01905060008167ffffffffffffffff811115611106576111056122ea565b5b6040519080825280601f01601f1916602001820160405280156111385781602001600182028036833780820191505090505b509050600082602001820190505b60011561119b578080600190039150507f3031323334353637383961626364656600000000000000000000000000000000600a86061a8153600a858161118f5761118e61270a565b5b04945060008503611146575b819350505050919050565b60007f80ac58cd000000000000000000000000000000000000000000000000000000007bffffffffffffffffffffffffffffffffffffffffffffffffffffffff1916827bffffffffffffffffffffffffffffffffffffffffffffffffffffffff1916148061127157507f5b5e139f000000000000000000000000000000000000000000000000000000007bffffffffffffffffffffffffffffffffffffffffffffffffffffffff1916827bffffffffffffffffffffffffffffffffffffffffffffffffffffffff1916145b80611281575061128082611716565b5b9050919050565b60006002600083815260200190815260200160002060009054906101000a900473ffffffffffffffffffffffffffffffffffffffff169050919050565b80806112fe5750600073ffffffffffffffffffffffffffffffffffffffff168273ffffffffffffffffffffffffffffffffffffffff1614155b1561143257600061130e84610b3b565b9050600073ffffffffffffffffffffffffffffffffffffffff168373ffffffffffffffffffffffffffffffffffffffff161415801561137957508273ffffffffffffffffffffffffffffffffffffffff168173ffffffffffffffffffffffffffffffffffffffff1614155b801561138c575061138a81846109a7565b155b156113ce57826040517fa9fbf51f0000000000000000000000000000000000000000000000000000000081526004016113c59190612143565b60405180910390fd5b811561143057838573ffffffffffffffffffffffffffffffffffffffff168273ffffffffffffffffffffffffffffffffffffffff167f8c5be1e5ebec7d5bd14f71427d1e84f3dd0314c0f7b2291e5b200ac8c7c3b92560405160405180910390a45b505b836004600085815260200190815260200160002060006101000a81548173ffffffffffffffffffffffffffffffffffffffff021916908373ffffffffffffffffffffffffffffffffffffffff16021790555050505050565b600080611498858585611780565b9050600073ffffffffffffffffffffffffffffffffffffffff168173ffffffffffffffffffffffffffffffffffffffff16036114dc576114d78461199a565b61151b565b8473ffffffffffffffffffffffffffffffffffffffff168173ffffffffffffffffffffffffffffffffffffffff161461151a5761151981856119e3565b5b5b600073ffffffffffffffffffffffffffffffffffffffff168573ffffffffffffffffffffffffffffffffffffffff160361155d5761155884611b44565b61159c565b8473ffffffffffffffffffffffffffffffffffffffff168173ffffffffffffffffffffffffffffffffffffffff161461159b5761159a8585611c15565b5b5b809150509392505050565b6115b18383611ca0565b6115be6000848484610f0a565b505050565b600080600090507a184f03e93ff9f4daa797ed6e38ed64bf6a1f0100000000000000008310611621577a184f03e93ff9f4daa797ed6e38ed64bf6a1f01000000000000000083816116175761161661270a565b5b0492506040810190505b6d04ee2d6d415b85acef8100000000831061165e576d04ee2d6d415b85acef810000000083816116545761165361270a565b5b0492506020810190505b662386f26fc10000831061168d57662386f26fc1000083816116835761168261270a565b5b0492506010810190505b6305f5e10083106116b6576305f5e10083816116ac576116ab61270a565b5b0492506008810190505b61271083106116db5761271083816116d1576116d061270a565b5b0492506004810190505b606483106116fe57606483816116f4576116f361270a565b5b0492506002810190505b600a831061170d576001810190505b80915050919050565b60007f01ffc9a7000000000000000000000000000000000000000000000000000000007bffffffffffffffffffffffffffffffffffffffffffffffffffffffff1916827bffffffffffffffffffffffffffffffffffffffffffffffffffffffff1916149050919050565b60008061178c84611288565b9050600073ffffffffffffffffffffffffffffffffffffffff168373ffffffffffffffffffffffffffffffffffffffff16146117ce576117cd818486611d99565b5b600073ffffffffffffffffffffffffffffffffffffffff168173ffffffffffffffffffffffffffffffffffffffff161461185f576118106000856000806112c5565b6001600360008373ffffffffffffffffffffffffffffffffffffffff1673ffffffffffffffffffffffffffffffffffffffff168152602001908152602001600020600082825403925050819055505b600073ffffffffffffffffffffffffffffffffffffffff168573ffffffffffffffffffffffffffffffffffffffff16146118e2576001600360008773ffffffffffffffffffffffffffffffffffffffff1673ffffffffffffffffffffffffffffffffffffffff168152602001908152602001600020600082825401925050819055505b846002600086815260200190815260200160002060006101000a81548173ffffffffffffffffffffffffffffffffffffffff021916908373ffffffffffffffffffffffffffffffffffffffff160217905550838573ffffffffffffffffffffffffffffffffffffffff168273ffffffffffffffffffffffffffffffffffffffff167fddf252ad1be2c89b69c2b068fc378daa952ba7f163c4a11628f55a4df523b3ef60405160405180910390a4809150509392505050565b6008805490506009600083815260200190815260200160002081905550600881908060018154018082558091505060019003906000526020600020016000909190919091505550565b60006119ee8361076b565b9050600060076000848152602001908152602001600020549050818114611ad3576000600660008673ffffffffffffffffffffffffffffffffffffffff1673ffffffffffffffffffffffffffffffffffffffff168152602001908152602001600020600084815260200190815260200160002054905080600660008773ffffffffffffffffffffffffffffffffffffffff1673ffffffffffffffffffffffffffffffffffffffff168152602001908152602001600020600084815260200190815260200160002081905550816007600083815260200190815260200160002081905550505b6007600084815260200190815260200160002060009055600660008573ffffffffffffffffffffffffffffffffffffffff1673ffffffffffffffffffffffffffffffffffffffff16815260200190815260200160002060008381526020019081526020016000206000905550505050565b60006001600880549050611b589190612768565b9050600060096000848152602001908152602001600020549050600060088381548110611b8857611b87612598565b5b906000526020600020015490508060088381548110611baa57611ba9612598565b5b906000526020600020018190555081600960008381526020019081526020016000208190555060096000858152602001908152602001600020600090556008805480611bf957611bf861279c565b5b6001900381819060005260206000200160009055905550505050565b60006001611c228461076b565b611c2c9190612768565b905081600660008573ffffffffffffffffffffffffffffffffffffffff1673ffffffffffffffffffffffffffffffffffffffff168152602001908152602001600020600083815260200190815260200160002081905550806007600084815260200190815260200160002081905550505050565b600073ffffffffffffffffffffffffffffffffffffffff168273ffffffffffffffffffffffffffffffffffffffff1603611d125760006040517f64a0ae92000000000000000000000000000000000000000000000000000000008152600401611d099190612143565b60405180910390fd5b6000611d2083836000610c1a565b9050600073ffffffffffffffffffffffffffffffffffffffff168173ffffffffffffffffffffffffffffffffffffffff1614611d945760006040517f73c6ac6e000000000000000000000000000000000000000000000000000000008152600401611d8b9190612143565b60405180910390fd5b505050565b611da4838383611e5d565b611e5857600073ffffffffffffffffffffffffffffffffffffffff168373ffffffffffffffffffffffffffffffffffffffff1603611e1957806040517f7e273289000000000000000000000000000000000000000000000000000000008152600401611e1091906121d9565b60405180910390fd5b81816040517f177e802f000000000000000000000000000000000000000000000000000000008152600401611e4f92919061256f565b60405180910390fd5b505050565b60008073ffffffffffffffffffffffffffffffffffffffff168373ffffffffffffffffffffffffffffffffffffffff1614158015611f1557508273ffffffffffffffffffffffffffffffffffffffff168473ffffffffffffffffffffffffffffffffffffffff161480611ed65750611ed584846109a7565b5b80611f1457508273ffffffffffffffffffffffffffffffffffffffff16611efc83610bc3565b73ffffffffffffffffffffffffffffffffffffffff16145b5b90509392505050565b6000604051905090565b600080fd5b600080fd5b60007fffffffff0000000000000000000000000000000000000000000000000000000082169050919050565b611f6781611f32565b8114611f7257600080fd5b50565b600081359050611f8481611f5e565b92915050565b600060208284031215611fa057611f9f611f28565b5b6000611fae84828501611f75565b91505092915050565b60008115159050919050565b611fcc81611fb7565b82525050565b6000602082019050611fe76000830184611fc3565b92915050565b600081519050919050565b600082825260208201905092915050565b60005b8381101561202757808201518184015260208101905061200c565b60008484015250505050565b6000601f19601f8301169050919050565b600061204f82611fed565b6120598185611ff8565b9350612069818560208601612009565b61207281612033565b840191505092915050565b600060208201905081810360008301526120978184612044565b905092915050565b6000819050919050565b6120b28161209f565b81146120bd57600080fd5b50565b6000813590506120cf816120a9565b92915050565b6000602082840312156120eb576120ea611f28565b5b60006120f9848285016120c0565b91505092915050565b600073ffffffffffffffffffffffffffffffffffffffff82169050919050565b600061212d82612102565b9050919050565b61213d81612122565b82525050565b60006020820190506121586000830184612134565b92915050565b61216781612122565b811461217257600080fd5b50565b6000813590506121848161215e565b92915050565b600080604083850312156121a1576121a0611f28565b5b60006121af85828601612175565b92505060206121c0858286016120c0565b9150509250929050565b6121d38161209f565b82525050565b60006020820190506121ee60008301846121ca565b92915050565b60008060006060848603121561220d5761220c611f28565b5b600061221b86828701612175565b935050602061222c86828701612175565b925050604061223d868287016120c0565b9150509250925092565b60006020828403121561225d5761225c611f28565b5b600061226b84828501612175565b91505092915050565b61227d81611fb7565b811461228857600080fd5b50565b60008135905061229a81612274565b92915050565b600080604083850312156122b7576122b6611f28565b5b60006122c585828601612175565b92505060206122d68582860161228b565b9150509250929050565b600080fd5b600080fd5b7f4e487b7100000000000000000000000000000000000000000000000000000000600052604160045260246000fd5b61232282612033565b810181811067ffffffffffffffff82111715612341576123406122ea565b5b80604052505050565b6000612354611f1e565b90506123608282612319565b919050565b600067ffffffffffffffff8211156123805761237f6122ea565b5b61238982612033565b9050602081019050919050565b82818337600083830152505050565b60006123b86123b384612365565b61234a565b9050828152602081018484840111156123d4576123d36122e5565b5b6123df848285612396565b509392505050565b600082601f8301126123fc576123fb6122e0565b5b813561240c8482602086016123a5565b91505092915050565b6000806000806080858703121561242f5761242e611f28565b5b600061243d87828801612175565b945050602061244e87828801612175565b935050604061245f878288016120c0565b925050606085013567ffffffffffffffff8111156124805761247f611f2d565b5b61248c878288016123e7565b91505092959194509250565b600080604083850312156124af576124ae611f28565b5b60006124bd85828601612175565b92505060206124ce85828601612175565b9150509250929050565b7f4e487b7100000000000000000000000000000000000000000000000000000000600052602260045260246000fd5b6000600282049050600182168061251f57607f821691505b602082108103612532576125316124d8565b5b50919050565b600060608201905061254d6000830186612134565b61255a60208301856121ca565b6125676040830184612134565b949350505050565b60006040820190506125846000830185612134565b61259160208301846121ca565b9392505050565b7f4e487b7100000000000000000000000000000000000000000000000000000000600052603260045260246000fd5b600081905092915050565b60006125dd82611fed565b6125e781856125c7565b93506125f7818560208601612009565b80840191505092915050565b600061260f82856125d2565b915061261b82846125d2565b91508190509392505050565b600081519050919050565b600082825260208201905092915050565b600061264e82612627565b6126588185612632565b9350612668818560208601612009565b61267181612033565b840191505092915050565b60006080820190506126916000830187612134565b61269e6020830186612134565b6126ab60408301856121ca565b81810360608301526126bd8184612643565b905095945050505050565b6000815190506126d781611f5e565b92915050565b6000602082840312156126f3576126f2611f28565b5b6000612701848285016126c8565b91505092915050565b7f4e487b7100000000000000000000000000000000000000000000000000000000600052601260045260246000fd5b7f4e487b7100000000000000000000000000000000000000000000000000000000600052601160045260246000fd5b60006127738261209f565b915061277e8361209f565b925082820390508181111561279657612795612739565b5b92915050565b7f4e487b7100000000000000000000000000000000000000000000000000000000600052603160045260246000fdfea264697066735822122018e6f702961fe9999b5a9e13d34e27f80fb8c5e0a867e35a3a6cde492c18669d64736f6c634300081b0033",
  "linkReferences": {},
  "deployedLinkReferences": {}
}