{
  "_format": "hh-sol-artifact-1",
  "contractName": "DMarketPlace",
  "sourceName": "contracts/DMarketPlace.sol",
  "abi": [
    {
      "inputs": [
        {
          "internalType": "address",
          "name": "_dnftAddress",
          "type": "address"
        }
      ],
      "stateMutability": "nonpayable",
      "type": "constructor"
    },
    {
      "inputs": [
        {
          "internalType": "bytes32",
          "name": "key",
          "type": "bytes32"
        }
      ],
      "name": "EnumerableMapNonexistentKey",
      "type": "error"
    },
    {
      "anonymous": false,
      "inputs": [
        {
          "indexed": false,
          "internalType": "address",
          "name": "seller",
          "type": "address"
        },
        {
          "components": [
            {
              "internalType": "address",
              "name": "seller",
              "type": "address"
            },
            {
              "internalType": "uint256",
              "name": "price",
              "type": "uint256"
            },
            {
              "internalType": "uint256",
              "name": "tokenId",
              "type": "uint256"
            }
          ],
          "indexed": false,
          "internalType": "struct DMarketPlace.NFTStatus",
          "name": "status",
          "type": "tuple"
        }
      ],
      "name": "Sell",
      "type": "event"
    },
    {
      "anonymous": false,
      "inputs": [
        {
          "indexed": false,
          "internalType": "address",
          "name": "taker",
          "type": "address"
        },
        {
          "components": [
            {
              "internalType": "address",
              "name": "seller",
              "type": "address"
            },
            {
              "internalType": "uint256",
              "name": "price",
              "type": "uint256"
            },
            {
              "internalType": "uint256",
              "name": "tokenId",
              "type": "uint256"
            }
          ],
          "indexed": false,
          "internalType": "struct DMarketPlace.NFTStatus",
          "name": "status",
          "type": "tuple"
        }
      ],
      "name": "Taken",
      "type": "event"
    },
    {
      "inputs": [],
      "name": "getIteams",
      "outputs": [
        {
          "components": [
            {
              "internalType": "address",
              "name": "seller",
              "type": "address"
            },
            {
              "internalType": "uint256",
              "name": "price",
              "type": "uint256"
            },
            {
              "internalType": "uint256",
              "name": "tokenId",
              "type": "uint256"
            }
          ],
          "internalType": "struct DMarketPlace.NFTStatus[]",
          "name": "",
          "type": "tuple[]"
        }
      ],
      "stateMutability": "view",
      "type": "function"
    },
    {
      "inputs": [
        {
          "internalType": "uint256",
          "name": "tokenId",
          "type": "uint256"
        },
        {
          "internalType": "uint256",
          "name": "price",
          "type": "uint256"
        }
      ],
      "name": "sellDNFT",
      "outputs": [],
      "stateMutability": "nonpayable",
      "type": "function"
    },
    {
      "inputs": [
        {
          "internalType": "uint256",
          "name": "",
          "type": "uint256"
        }
      ],
      "name": "statusMap",
      "outputs": [
        {
          "internalType": "address",
          "name": "seller",
          "type": "address"
        },
        {
          "internalType": "uint256",
          "name": "price",
          "type": "uint256"
        },
        {
          "internalType": "uint256",
          "name": "tokenId",
          "type": "uint256"
        }
      ],
      "stateMutability": "view",
      "type": "function"
    },
    {
      "inputs": [
        {
          "internalType": "uint256",
          "name": "tokenId",
          "type": "uint256"
        }
      ],
      "name": "takeDNFT",
      "outputs": [],
      "stateMutability": "payable",
      "type": "function"
    },
    {
      "inputs": [],
      "name": "totalItem",
      "outputs": [
        {
          "internalType": "uint256",
          "name": "",
          "type": "uint256"
        }
      ],
      "stateMutability": "view",
      "type": "function"
    },
    {
      "stateMutability": "payable",
      "type": "receive"
    }
  ],
  "bytecode": "0x608060405234801561001057600080fd5b50604051611263380380611263833981810160405281019061003291906100e4565b600060048190555080600360006101000a81548173ffffffffffffffffffffffffffffffffffffffff021916908373ffffffffffffffffffffffffffffffffffffffff16021790555050610111565b600080fd5b600073ffffffffffffffffffffffffffffffffffffffff82169050919050565b60006100b182610086565b9050919050565b6100c1816100a6565b81146100cc57600080fd5b50565b6000815190506100de816100b8565b92915050565b6000602082840312156100fa576100f9610081565b5b6000610108848285016100cf565b91505092915050565b611143806101206000396000f3fe60806040526004361061004e5760003560e01c80635c1555d71461005a578063bcd5fe9514610083578063bda4fd89146100c2578063bf67387c146100ed578063c7e6cf221461011857610055565b3661005557005b600080fd5b34801561006657600080fd5b50610081600480360381019061007c9190610c7a565b610134565b005b34801561008f57600080fd5b506100aa60048036038101906100a59190610cba565b6103cb565b6040516100b993929190610d37565b60405180910390f35b3480156100ce57600080fd5b506100d7610415565b6040516100e49190610d6e565b60405180910390f35b3480156100f957600080fd5b5061010261041b565b60405161010f9190610e98565b60405180910390f35b610132600480360381019061012d9190610cba565b61058e565b005b3373ffffffffffffffffffffffffffffffffffffffff16600360009054906101000a900473ffffffffffffffffffffffffffffffffffffffff1673ffffffffffffffffffffffffffffffffffffffff16636352211e846040518263ffffffff1660e01b81526004016101a69190610d6e565b602060405180830381865afa1580156101c3573d6000803e3d6000fd5b505050506040513d601f19601f820116820180604052508101906101e79190610ee6565b73ffffffffffffffffffffffffffffffffffffffff161461020757600080fd5b61021b82600061079590919063ffffffff16565b1561022557600080fd5b600060405180606001604052803373ffffffffffffffffffffffffffffffffffffffff16815260200183815260200184815250905060016004546102699190610f42565b6004819055508060056000600454815260200190815260200160002060008201518160000160006101000a81548173ffffffffffffffffffffffffffffffffffffffff021916908373ffffffffffffffffffffffffffffffffffffffff16021790555060208201518160010155604082015181600201559050506102fb8360045460006107af9092919063ffffffff16565b50600360009054906101000a900473ffffffffffffffffffffffffffffffffffffffff1673ffffffffffffffffffffffffffffffffffffffff166323b872dd3330866040518463ffffffff1660e01b815260040161035b93929190610f76565b600060405180830381600087803b15801561037557600080fd5b505af1158015610389573d6000803e3d6000fd5b505050507f50a24d76cd3ae614344047351487735994a1cbe1e949915b3e4ea925ce5e37c033826040516103be929190610fef565b60405180910390a1505050565b60056020528060005260406000206000915090508060000160009054906101000a900473ffffffffffffffffffffffffffffffffffffffff16908060010154908060020154905083565b60045481565b6060600061042960006107ce565b67ffffffffffffffff81111561044257610441611018565b5b60405190808252806020026020018201604052801561047b57816020015b610468610c08565b8152602001906001900390816104605790505b509050600061048a60006107e3565b905060005b81518110156105855760006104c88383815181106104b0576104af611047565b5b6020026020010151600061080490919063ffffffff16565b9050600560008281526020019081526020016000206040518060600160405290816000820160009054906101000a900473ffffffffffffffffffffffffffffffffffffffff1673ffffffffffffffffffffffffffffffffffffffff1673ffffffffffffffffffffffffffffffffffffffff1681526020016001820154815260200160028201548152505084838151811061056557610564611047565b5b60200260200101819052505060018161057e9190610f42565b905061048f565b50819250505090565b6105a281600061079590919063ffffffff16565b6105ab57600080fd5b6000600560006105c584600061080490919063ffffffff16565b81526020019081526020016000206040518060600160405290816000820160009054906101000a900473ffffffffffffffffffffffffffffffffffffffff1673ffffffffffffffffffffffffffffffffffffffff1673ffffffffffffffffffffffffffffffffffffffff1681526020016001820154815260200160028201548152505090506000349050816020015181101561066057600080fd5b61067483600061082190919063ffffffff16565b506000826000015190508073ffffffffffffffffffffffffffffffffffffffff166108fc349081150290604051600060405180830381858888f193505050501580156106c4573d6000803e3d6000fd5b50600360009054906101000a900473ffffffffffffffffffffffffffffffffffffffff1673ffffffffffffffffffffffffffffffffffffffff166323b872dd3033876040518463ffffffff1660e01b815260040161072493929190610f76565b600060405180830381600087803b15801561073e57600080fd5b505af1158015610752573d6000803e3d6000fd5b505050507ff13a0832c839e0a5026de31dc335cf3cd93a681e6138a7b5e67c6f54ea8fb9e93384604051610787929190610fef565b60405180910390a150505050565b60006107a7836000018360001b61083b565b905092915050565b60006107c5846000018460001b8460001b61085b565b90509392505050565b60006107dc82600001610896565b9050919050565b606060006107f3836000016108ab565b905060608190508092505050919050565b6000610816836000018360001b6108c0565b60001c905092915050565b6000610833836000018360001b610940565b905092915050565b6000610853828460000161097990919063ffffffff16565b905092915050565b6000818460020160008581526020019081526020016000208190555061088d838560000161099090919063ffffffff16565b90509392505050565b60006108a4826000016109a7565b9050919050565b60606108b9826000016109bc565b9050919050565b6000808360020160008481526020019081526020016000205490506000801b811480156108f457506108f2848461083b565b155b1561093657826040517f02b5668600000000000000000000000000000000000000000000000000000000815260040161092d919061108f565b60405180910390fd5b8091505092915050565b60008260020160008381526020019081526020016000206000905561097182846000016109dd90919063ffffffff16565b905092915050565b600061098883600001836109f4565b905092915050565b600061099f8360000183610a17565b905092915050565b60006109b582600001610a87565b9050919050565b606060006109cc83600001610a98565b905060608190508092505050919050565b60006109ec8360000183610af4565b905092915050565b600080836001016000848152602001908152602001600020541415905092915050565b6000610a2383836109f4565b610a7c578260000182908060018154018082558091505060019003906000526020600020016000909190919091505582600001805490508360010160008481526020019081526020016000208190555060019050610a81565b600090505b92915050565b600081600001805490509050919050565b606081600001805480602002602001604051908101604052809291908181526020018280548015610ae857602002820191906000526020600020905b815481526020019060010190808311610ad4575b50505050509050919050565b60008083600101600084815260200190815260200160002054905060008114610bfc576000600182610b2691906110aa565b9050600060018660000180549050610b3e91906110aa565b9050808214610bad576000866000018281548110610b5f57610b5e611047565b5b9060005260206000200154905080876000018481548110610b8357610b82611047565b5b90600052602060002001819055508387600101600083815260200190815260200160002081905550505b85600001805480610bc157610bc06110de565b5b600190038181906000526020600020016000905590558560010160008681526020019081526020016000206000905560019350505050610c02565b60009150505b92915050565b6040518060600160405280600073ffffffffffffffffffffffffffffffffffffffff16815260200160008152602001600081525090565b600080fd5b6000819050919050565b610c5781610c44565b8114610c6257600080fd5b50565b600081359050610c7481610c4e565b92915050565b60008060408385031215610c9157610c90610c3f565b5b6000610c9f85828601610c65565b9250506020610cb085828601610c65565b9150509250929050565b600060208284031215610cd057610ccf610c3f565b5b6000610cde84828501610c65565b91505092915050565b600073ffffffffffffffffffffffffffffffffffffffff82169050919050565b6000610d1282610ce7565b9050919050565b610d2281610d07565b82525050565b610d3181610c44565b82525050565b6000606082019050610d4c6000830186610d19565b610d596020830185610d28565b610d666040830184610d28565b949350505050565b6000602082019050610d836000830184610d28565b92915050565b600081519050919050565b600082825260208201905092915050565b6000819050602082019050919050565b610dbe81610d07565b82525050565b610dcd81610c44565b82525050565b606082016000820151610de96000850182610db5565b506020820151610dfc6020850182610dc4565b506040820151610e0f6040850182610dc4565b50505050565b6000610e218383610dd3565b60608301905092915050565b6000602082019050919050565b6000610e4582610d89565b610e4f8185610d94565b9350610e5a83610da5565b8060005b83811015610e8b578151610e728882610e15565b9750610e7d83610e2d565b925050600181019050610e5e565b5085935050505092915050565b60006020820190508181036000830152610eb28184610e3a565b905092915050565b610ec381610d07565b8114610ece57600080fd5b50565b600081519050610ee081610eba565b92915050565b600060208284031215610efc57610efb610c3f565b5b6000610f0a84828501610ed1565b91505092915050565b7f4e487b7100000000000000000000000000000000000000000000000000000000600052601160045260246000fd5b6000610f4d82610c44565b9150610f5883610c44565b9250828201905080821115610f7057610f6f610f13565b5b92915050565b6000606082019050610f8b6000830186610d19565b610f986020830185610d19565b610fa56040830184610d28565b949350505050565b606082016000820151610fc36000850182610db5565b506020820151610fd66020850182610dc4565b506040820151610fe96040850182610dc4565b50505050565b60006080820190506110046000830185610d19565b6110116020830184610fad565b9392505050565b7f4e487b7100000000000000000000000000000000000000000000000000000000600052604160045260246000fd5b7f4e487b7100000000000000000000000000000000000000000000000000000000600052603260045260246000fd5b6000819050919050565b61108981611076565b82525050565b60006020820190506110a46000830184611080565b92915050565b60006110b582610c44565b91506110c083610c44565b92508282039050818111156110d8576110d7610f13565b5b92915050565b7f4e487b7100000000000000000000000000000000000000000000000000000000600052603160045260246000fdfea264697066735822122007dd652635c779fedb4c0e00c674260701f5a16a346ef710f858359358a1e14e64736f6c634300081b0033",
  "linkReferences": {},
  "deployedLinkReferences": {}
}